:020000040800F2
:10000000C0770120A9010008BD6E0108B56E010886
:10001000B96E01084D03000871700108000000006E
:10002000000000000000000000000000C56E010894
:100030000565010800000000C16E0108C96E0108D5
:10004000C3010008C3010008C3010008C301000880
:10005000C3010008C3010008C3010008C301000870
:10006000C3010008C3010008C3010008C301000860
:10007000C3010008C3010008C3010008C301000850
:10008000C3010008C3010008C3010008000000000C
:10009000000000000000000000000000C301000894
:1000A000C3010008C3010008C3010008C301000820
:1000B000C3010008C3010008C3010008C301000810
:1000C000C3010008C3010008C3010008C301000800
:1000D000C3010008C3010008C301000800000000BC
:1000E000C3010008C3010008C301000800000000AC
:1000F000000000000000000000000000C301000834
:1001000000000000C3010008C3010008C30100088B
:1001100000000000000000000000000000000000DF
:10012000C3010008C3010008C3010008C30100089F
:10013000C3010008000000000000000000000000F3
:10014000000000000000000000000000C3010008E3
:10015000C3010008C3010008C3010008C30100086F
:10016000C3010008C30100080000000000000000F7
:10017000000000000000000000000000000000007F
:1001800000000000C30100080000000000000000A3
:10019000C3010008DFF80CD000F09AF800480047CF
:1001A0006D7B0108C077012006488047064800475C
:1001B000FEE7FEE7FEE7FEE7FEE7FEE7FEE7FEE717
:1001C000FEE7FEE7796F0108950100082DE9F05F71
:1001D0000546002092469B468846064681464024B6
:1001E0001BE0284641464746224600F061F8534648
:1001F0005A46C01A914110D311461846224600F0C3
:1002000048F82D1A67EB01084F46224601200021CD
:1002100000F03FF817EB00094E41201EA4F1010445
:10022000DFDC484631462A464346BDE8F09F10B51C
:10023000431A934209D28318881803E010F8011D6D
:1002400003F8011D521EF9D210BD40EA01039B07BD
:1002500003D009E008C9121F08C0042AFAD203E03B
:1002600011F8013B00F8013B521EF9D210BDD2B289
:1002700001E000F8012B491EFBD270470022F6E78F
:1002800010B513460A4604461946FFF7F0FF20460C
:1002900010BD202A04DB203A00FA02F1002070474A
:1002A0009140C2F1200320FA03F3194390407047B4
:1002B000202A04DB203A21FA02F00021704721FABB
:1002C00002F3D040C2F12002914008431946704722
:1002D000064C074D06E0E06840F0010394E8070093
:1002E00098471034AC42F6D3FFF758FF587E010808
:1002F000787E010870B58C1810F8015B15F00703C3
:1003000001D110F8013B2A1106D110F8012B03E0AE
:1003100010F8016B01F8016B5B1EF9D12B0705D4B6
:100320000023521E0DD401F8013BFAE710F8013BFF
:10033000CB1A921C03E013F8015B01F8015B521E1B
:10034000F9D5A142D8D3002070BD0000FEE700001F
:100350002DE9F04F03AFDFB047F8D81CD7E91114EF
:1003600047F89C0C072000EB84007D6B20F0070011
:10037000D7E90896D7F828A0D7F830E0D7E906845F
:10038000ADEB000047F8740C8546A7F5807040F887
:100390006C2C01FB02F000FB03F14909A7F5807208
:1003A00042F85C1C4009A7F5807141F8600C09FB1C
:1003B00004F101FB06F0A7F5807242F8240C400915
:1003C000A7F5807242F8700CA7F5807040F81C1CED
:1003D0004809A7F5807141F8740C600947F8A80C2A
:1003E000A8EB0600A7F5807141F8780C00EB4E01F0
:1003F0000846A7F5807040F87C1C481C90FBF5F07F
:10040000A7F5807141F8800CA3EB09010846A7F518
:10041000807040F8641C01EB4E010846A7F580701F
:1004200040F8841C481C0EEB0501013991FBF5F1E5
:1004300090FBF5F07546A7F5807E4EF8680C08B283
:10044000A7F5807E4EF84C0C01284FEA5A10A7F50C
:10045000807E47F8983C4EF8300CC0F27987A7F5BB
:10046000807E5EF8680CA7F5807E0104D7F848C04E
:100470004EF8581C00B2A7F5807E4EF8480C4FEAA3
:100480008C00A7F5807E4EF8380CA7F5807E5EF8CC
:10049000780CA7F5807E2844CEF80000A7F5807E72
:1004A0005EF8640CA7F5807E284447F8B40C5EF82B
:1004B000700CA7F5807E80B24EF8180CA7F5807EF0
:1004C0005EF8740CA7F5807E80B24EF8040CA7F598
:1004D000807E5EF85C0CA7F5807E83B25EF8600CCF
:1004E000A7F5807E80B247F8D40C5EF86C0C7A6C6D
:1004F0004FEA5019C2F1100047F8E00C901E57F86F
:100500009C1C47F8800C02EB420001EB8006800047
:10051000A7F5807E47F8180C501E4EF8086C47F877
:10052000EC0CACF10100A7F5807E4EF82C0C02F02B
:10053000030047F8E40C0CF0030047F8643C9B0010
:100540006E42A7F5807847F8543C0346100148F8FE
:10055000506C47F8140C01EBC200A7F5807646F802
:100560000C0C01EB8200A7F5807141F8100C57F8D4
:10057000740CA7F58071103841F83C0CF96A0CF046
:10058000FC0EA7F5807C4CF8341C0021A7F5807C7C
:1005900002F0FC044CF8541CA7F580717646CEF1AD
:1005A000000200204FF0553B4FF033384FF0013A36
:1005B00041F8204CA7F5807147F8B8ECA7F5807E8C
:1005C00041F8283C4EF8402C11E000BFA7F5807E92
:1005D0005EF8540CA7F5807E01304EF8540CA7F558
:1005E000807E5EF84C1C80B2814240F3B186A7F554
:1005F000807E5EF8581C0129E8DBA7F5807E7A6BC7
:100600005EF8541C5043A7F5807E89B247F8F80C79
:100610005EF8500C5143084447F8FC0C00200021C0
:10062000A7F5807E4EF8441C12E000BF3446A7F5C3
:10063000807E5EF8440CA7F5807E01304EF8440CB5
:10064000A7F5807E5EF8481C80B226468142BDDD5B
:10065000A7F5807E5EF8301C0029E7D0A7F5807EE4
:100660007A6B5EF8441C5043A7F5807E89B247F848
:10067000B00C5EF8500C5143084447F8D00C386C6D
:10068000D7E90E6C47F8880C57F8740C002110E07D
:1006900057F8740C57F8B84C0131A7F5807E0E4618
:1006A0005EF8301C0CF1040C8E42314657F8846C15
:1006B000BDD0A7F5807E47F8E81C5EF8381C47F8E7
:1006C000ACCCFFF7DBFD57F8E80C57F8882C40015D
:1006D000A7F5807E00244EF8140C0FE057F8DC4C90
:1006E00057F8846C57F8882C01343D6B57F8E81C98
:1006F0000436202C02F1040200F08885786B4FF05C
:100700000043002847E9222647F8783C00F01C8483
:10071000A7F5807E5EF8140CA7F5807E5EF8181CA5
:100720002044484357F8D81C47F8DC4C01EB800EB6
:1007300023FA04F047F8A40C0020002347F8F4EC57
:1007400057F8F81C002208441C46A7F58073291AA4
:1007500088BF0A461B68BE6998427B6AC8BF8B196E
:10076000A7F5807151F8041C401B96B247F8680C3D
:1007700098B2714347F8480C57F8FC0C0EEB810116
:1007800047F8BC1C10FA82F057F8641C10FA84F089
:10079000484357F89C1CA7F5807E01EB800147F881
:1007A000C01C5EF8081CA7F5807E01EB800147F8AD
:1007B000C41C5EF80C1CA7F5807E01EB800147F895
:1007C000C81C5EF8101C47F8F04C01EB800047F89D
:1007D000CC0C0020002447F88C6C0DE00021B86C94
:1007E00081423FF47BAF57F8A04C796B0134A0B243
:1007F0003D6B884280F09A8357F8B01C4FF0000C94
:1008000001446A1A88BF944657F8B40C57F8983CCC
:100810008142386AC8BFD0187A6C47F8A04C002AC9
:1008200000F01883002347F8703C57F88C3C57F8C9
:10083000486CA2B2B3424FF0000347F81C2C28BF0B
:10084000012357F8A86CAE4662461FFA8CF557F89C
:10085000BCCC05FB06F40CEB840447F8904CA1EBF0
:100860000E0157F8D4EC3C6A11FA82F101FB0EFC40
:1008700081B214FA82F4A9424FF00005A4EB0104FE
:1008800098BF012547F8201C04FB06F147F84C1CD3
:10089000811A501C47F85C0C43EA050047F87C0CB1
:1008A00057F89C0C47F8501C00EB8C0047F8940C50
:1008B00001F0010047F8600C57F8D00C57F81C1CE9
:1008C00010FA82F0084457F8C01C0EFB00F001EB50
:1008D000800147F8281C57F8C41C002501EB800153
:1008E00047F8341C57F8C81C6FF0FF0E01EB80016D
:1008F00047F8301C57F8CC1C144601EB800000214F
:1009000047F82C0C47F8242C57F87C0C47F8441C6B
:1009100047F86C5C30B3002047F8380C00207B6C43
:10092000C943CA1857F8381CFE69C9B2714357F851
:10093000446CC1EB400006F1010C57F86C5C904030
:100940009C4557F8443C054400F0698257F8800CF8
:1009500047F86C5CC01AC0B2032880F009820023FB
:1009600060462BE257F8940C57F8705C00EB81005E
:1009700057F88C2C57F890CC47F8580C00200021E1
:1009800047F8381C1BE000BF57F8501C57F8382CAC
:1009900057F83C5C0A4457F84C1C47F8382C57F879
:1009A000402C0CEB810C57F8481C01328A4257F856
:1009B000541C6FF0FF0E0D4457F8441CAFD0B9F132
:1009C000000F47E91025DFD057F8681C114457F88D
:1009D000642C514357F8602C002A57F8582C02EB2E
:1009E000810E0BD157F85C1C624647F81C4C57F837
:1009F000203C89B28B4240F0B280C5E700266246B7
:100A000057F8281C52F8043B49594B40DB430BEA8A
:100A10005301591A08EA910321F0CC31194401EB32
:100A2000111121F0F03101FB0AF100EB116046F0E9
:100A300001017B6C89B289450EEB830E66D957F8AC
:100A40002C1CDCF8042049590EEB830E5140C9439D
:100A50000BEA5102891A08EA910221F0CC311144C3
:100A600001EB111121F0F03101FB0AF100EB1160F3
:100A700046F0020189B289454ED957F8301CDCF89E
:100A8000082049590EEB830E5140C9430BEA51022D
:100A9000891A08EA910221F0CC31114401EB1111BD
:100AA00021F0F03101FB0AF100EB116046F0030187
:100AB00089B2894534D957F8341CDCF80C304959CF
:100AC00004365940C9430BEA5103C91A08EA910395
:100AD00021F0CC31194401EB111121F0F03101FB6F
:100AE0000AF100EB1160796C57F8143C0CF110021C
:100AF0000EEB810EB1B21D44894594463FF680AF9E
:100B000057F8281C01EB050E0CE000BF57F85C1CE1
:100B10000CF1040C09E000BF0CF1080202E000BF78
:100B20000CF10C0257F85C1C944647F81C1C57F853
:100B3000203C89B28B4212D126E700BF01F1040CA0
:100B40009E4657F81C1C57F8202C023147F81C1CF5
:100B500089B257F8244C91426246BFF415AFD7F8DA
:100B600044C00025DEF8001013685940C9430BEA61
:100B70005103C91A08EA910321F0CC31194401EB61
:100B8000111121F0F03101FB0AF100EB116045F089
:100B9000010189B289450EEB8C0359D95EF82C10FE
:100BA000566803EB8C037140C9430BEA5106891B5D
:100BB00008EA910621F0CC31314401EB111121F00A
:100BC000F03101FB0AF100EB116045F0020189B23E
:100BD000894541D95EF83C1096687140C9430BEADB
:100BE0005106891B08EA910621F0CC31314401EB12
:100BF000111121F0F03145F0030601FB0AF1B6B204
:100C0000B14500EB11602BD957F8181CD6685EF877
:100C1000013002F1100183EA0602D2430BEA5203CB
:100C2000D21A08EA920322F0CC321A4402EB1212D2
:100C300022F0F03202FB0AF200EB126057F8142C9B
:100C400004359644AAB291450A468BD80CE000BF01
:100C5000111D9E4608E000BF02F108019E4603E018
:100C600003EB8C0E02F10C01002200BFDEF8003015
:100C70000E687C6C7340DB430BEA53069B1B08EA4F
:100C8000930623F0CC33334403EB131323F0F033F8
:100C900003FB0AF300EB136042F001039BB299459A
:100CA0000EEB84037FF64AAF5EF824604D6803EBD9
:100CB00084036E40F6430BEA5605761B08EA960558
:100CC00026F0CC362E4406EB161626F0F03606FB40
:100CD0000AF600EB166042F00206B6B2B1453DD905
:100CE0005EF834608D686E40F6430BEA5605761B5D
:100CF00008EA960526F0CC362E4406EB161626F0AA
:100D0000F03642F0030506FB0AF6ADB2A94500EB4A
:100D1000166027D957F8183CCD685EF8033001F10A
:100D2000100C83EA0501C9430BEA5103C91A08EA0A
:100D3000910321F0CC31194401EB111121F0F03174
:100D400001FB0AF100EB116057F8141C04328E44C9
:100D500091B28945614689D8F3E600BF01F1080CDC
:100D6000EEE600BF03EB840E01F10C0CE9E600BFD8
:100D70007E6C02F0FC050023604600BF6EEA0004B2
:100D8000344401FA04F42344441C6EEA0404344459
:100D900001FA04F42344841C6EEA0404344401FA86
:100DA00004F42344C41C6EEA0404344401FA04F439
:100DB000043D23442C0600F10400DFD112F00302AD
:100DC0001AD07E6C6EEA0005354401FA05F5012A59
:100DD0002B4411D0461C7D6C6EEA06062E4401FAA7
:100DE00006F6022A334407D002307A6C6EEA00001D
:100DF000104401FA00F0034457F86C5C57F8781C73
:100E0000581957F8244C884209DB57F8700C614692
:100E1000043047F8700C786C84457FF475AD57F852
:100E2000780C57F8ACCC57F8A44C85427FF7DBAC74
:100E3000796C45FA01F04FEA0040C9B157F8EC1C53
:100E40002C460022032917D257F8E46C0021012513
:100E500076BB3EE057F8780C57F8ACCC57F8A44C6A
:100E600000287FF5C0AC00200022002134E000BF44
:100E700000212A4630E000BFA7F5807E5EF8206C96
:100E80000021012505FA02F31943531C05FA03F367
:100E90001943931C05FA03F31943D31C05FA03F312
:100EA0000432964241EA0301ECD157F8E46C86B172
:100EB00005FA02F3012E41EA03010AD0531C05FA98
:100EC00003F3022E41EA030103D0023205FA02F2D3
:100ED0001143224657F8A44CBB6C47F8782C002BE2
:100EE0003FF47CAC114057F8E02C914008440021BD
:100EF00057F8842C126890427FF771AC57F8743C15
:100F000053F82120224343F8212057F8882C01313F
:100F10001268DCF800300A41234218BF52421044E4
:100F2000BA6C8A42E4D1FFF7D9BB00BF57F8F03C56
:100F3000796B013398B257F8846C57F8DC4C57F84A
:100F4000F4EC8842FFF4FCAB786C58B157F8EC0C29
:100F500003280BD257F8ACCC0020002157F8E42C22
:100F600032BB3BE057F8ACCC002137E0A7F5807EE0
:100F70005EF8206C00200021012300BF03FA00F27C
:100F80001143421C03FA02F21143821C03FA02F2DB
:100F90001143C21C03FA02F20430864241EA020104
:100FA000ECD157F8ACCC57F8846C57F8E42CAAB1C4
:100FB000012257F8E43C8240012B41EA02010DD0A6
:100FC000421C012303FA02F257F8E43C1143022BBE
:100FD00004D00230012202FA00F00143B86C08B3D9
:100FE000786C57F8782CA7F5807E42FA00F0114013
:100FF00057F8E02C000491400E18DCF80000C4F112
:101000001F025EF82C1CD040032900F0010047F8B5
:10101000DC4C47F81C0C47F82C2C0FD24FF0000E7C
:101020008AE000BF57F8882C013457F8E81C0436D2
:10103000202C02F104027FF461AB6FE115464FF002
:10104000000E6FF0030100BF57F8842C00241068D5
:1010500047F8286C47F8201C8642C8BF012457F87F
:10106000740C2E464318596804FA05F557F888CCD5
:1010700029435960DCF8001047F8243C0EF10105C3
:1010800057F81C3C2941A34208BF4942146857F84D
:10109000282C00EB8E051144A1424FF00004C8BF7C
:1010A00001246B6804FA06F018436860DCF800005D
:1010B0000EF1020357F81C2C1841AB68A24208BF7E
:1010C000404257F884CC0844DCF800400021A0429C
:1010D000C8BF012101FA06F457F8886C2343AB60BE
:1010E00033680EF1030423418A4208BF5B42DCF8F7
:1010F000001000EB030C8C454FF00001C8BF01212C
:1011000057F8245C57F82C0C2B6901FA00F48A423A
:1011100031680EF1040E43EA040341FA0EF12B612B
:1011200008BF494205460CEB010657F8201C57F84A
:10113000B80C1031704587D1A7F5807050F8280C95
:1011400057F8ACCC00283FF4C9AA57F8840CA7F58F
:101150008072006886424FF00000C8BF012057F837
:10116000741C57F82C3C51F82E5000FA03F343EA54
:10117000050457F8883C1D6857F81C3C83420EF163
:10118000010345FA03F008BF404252F8285C41F8D9
:101190002E40012D3FF4A2AA57F8841C3418096888
:1011A00000258C42C8BF012557F8740C57F82C6CE9
:1011B00050F8231005FA06F6A7F58072314352F86D
:1011C000286C40F82310022E3FF488AA57F8880CA8
:1011D0000EF10202016857F81C0C1141A84208BF29
:1011E000494257F8840C0368601898424FF0000099
:1011F000C8BF012057F8743C57F82C4C53F8221004
:10120000A040084343F82200FFF768BAB86CA7F57E
:10121000807E5EF8283C002847E922263FF438AA61
:10122000A7F5807E5EF82C0C57F8B84C03281BD22B
:1012300057F8740C0021002B58D01E46034650F876
:101240002100DCF80020A7F5807E5EF834EC5040E9
:10125000C2437046012E40F8042B4BD1A7F5807E87
:101260004EF8340C18466EE0A7F5807E5EF8340C1C
:10127000A7F5807E5EF83C2CA7F5807E5EF8406C7A
:101280001038002152F8103FDCF8005004396B4050
:10129000DB4340F8103F5368DCF800508E4283EA8D
:1012A00005036FEA030343609368DCF8005083EAA8
:1012B00005036FEA03038360D368DCF8005083EA18
:1012C00005036FEA0303C360DCD11030A7F5807E0D
:1012D0004EF8340CA7F5807E3D6B57F8740C5EF821
:1012E000283C57F8B84C4942002BA6D157F8E81CC7
:1012F000FFF7D2B903EB81004168DCF80020022E31
:1013000081EA02016FEA0101CEF804100CD10EF15E
:10131000080EA7F5807040F834EC12E057F8740C12
:1013200047E92226FFF7B6B98068DCF8001048408C
:10133000C043CEF808000EF10C00A7F5807E4EF8F1
:10134000340C57F8740C57F8E81CFFF7A3B900BF2A
:10135000A7F5807E5EF84C1CA7F5807E5EF8800CB9
:101360008AB200B2A0EB4101A7F5807E4EF8541C72
:10137000A7F5807E91424EF8482C80F2DB87A7F5D6
:10138000807E786B5EF87C1CA7F5807E91FBF0F187
:101390005EF84C0CA7F5807EC0F101004EF87C0C85
:1013A0000844A7F5807E4EF8500C80B2A7F5807EE9
:1013B00081424EF8581C81F22986A7F5807E5EF89E
:1013C000540CA7F5807E5EF8481C8842C2F2AA85BC
:1013D000A7F5807E5EF8680CA7F5807E5EF84CEC81
:1013E0000FFA80F81EFB00F1A7F5807050F8300C62
:1013F000BE6CA7F58072704342F8680CA7F5807246
:1014000042F8801C4843A7F5807151F8781CA7F575
:101410008072294447F8F01CA7F5807151F8641CCC
:101420007B6C294447F8A41CA7F5807151F8701C07
:10143000AA4689B242F8081CA7F5807151F8741CBD
:1014400057F89C2C89B247F8F41CA7F5807151F825
:101450005C1C4FF0013B1FFA81FCA7F5807151F82D
:10146000601C47F854CC89B247F8BC1CA7F58071C2
:1014700051F86C1C4FEA5119B96A06FB01F503EBF0
:10148000430102EB8104890047F8F84C47F8181C27
:10149000B100A7F5807444F8281CC3F1100147F887
:1014A000E01CA7F5807141F85C8CA7F5807141F8CC
:1014B000605C05FB08F1A7F5807444F8581C991E80
:1014C00047F8781C591E47F8E81C711EA7F5807470
:1014D00044F8201C03F0030147F8DC1C03F0FC0176
:1014E00047F8EC1C06F00301A7F5807444F8181CBB
:1014F000CAF10004A7F5807545F8404C4FEA8C0509
:1015000047F8405C1D0106F0FC0147F8145C02EB53
:10151000C30502EB8302A7F580731A600A4647F8F9
:10152000AC1C57F8741CA7F58073103943F8381CAD
:101530005142A7F5807242F8341CA7F5807151F82A
:10154000481CA7F580724FF0333842F8501CA7F5BD
:10155000807147F8FC5C41F844EC23E0A7F5807EFD
:101560005EF8500CA7F5807E5EF8581C01304843A9
:10157000C117A7F5807E00EBD1605EF8441CA7F58B
:10158000807E01314EF8441CA7F5807E8AB25EF859
:10159000541CA7F5807E91424FEA60104EF8502C03
:1015A000C2F2B684A7F5807E5EF84C1C0129D5DB1B
:1015B000A7F5807EFB6A5EF8441CA7F5807E7A6BF7
:1015C00003EB80035EF8500CA7F5807E50434EF885
:1015D000100CA7F5807E89B25EF8400C5143084498
:1015E000A7F5807E4EF8140C00200021A7F5807E20
:1015F0004EF83C1C16E000BFA7F5807E5EF83C0C60
:10160000A7F5807E01304EF83C0CA7F5807E5EF891
:101610004C1CA7F5807E80B25EF82C3CD7F830A039
:1016200081429BDDA7F5807E5EF8301CA7F5807EA9
:1016300000294EF82C3CDFD0A7F5807E7A6B5EF84F
:101640003C1C5043A7F5807E89B247F8B80C5EF881
:10165000400C5143084447F8D40C386CD7E90E6A63
:1016600047F8840C57F8740C00240EE0A7F5807E30
:101670004EF82C0C08466646A7F5807E5EF8301CB6
:1016800001348C420AF1040AB6D0A7F5807E5EF8D8
:10169000281C47F8B0ACFEF7F1FD3046A7F5807086
:1016A00040F8244C6001A7F58071D7F848E041F874
:1016B0001C0C57F8841CD7F830C000250DE000BF83
:1016C00057F8E45C57F8841C0135D7F848E0043635
:1016D000202D01F1040100F09785786B4FF0004256
:1016E000002847F8946C47F8841C47F87C2C00F0DD
:1016F0003584A7F5807E5EF81C0CA7F5807E5EF829
:10170000081C2844484357F8D81C7E6C01EB800A1B
:1017100022FA05F047F8B40C00200024A7F5807EDB
:1017200047F8E45C4EF80CACA7F5807E5EF8101C20
:1017300000220844BCEB000188BF0A4657F8F03C81
:10174000D7F830C098427B6ABD69C8BF4B1957F8BB
:10175000F41CA0EB0C0095B247F8640C98B2A7F506
:10176000807E694347F8480C5EF8140C0AEB81014F
:1017700047F8C01C10FA82F057F8541C10FA84F095
:10178000484357F89C1CA7F5807E01EB800147F881
:10179000C41C57F8F81C4EF8044C01EB800147F8C4
:1017A000C81C57F8FC1CA7F5807E01EB800147F8A8
:1017B000CC1CDEF8001047F8885C01EB800047F88D
:1017C000D00C0020002147F8A01C10E0002191421D
:1017D0003FF476AF57F8A00C796B013047F8A00CB6
:1017E00080B27E6C884247F87C4C80F09B8357F82F
:1017F000B81CE6460144BCEB01024FF0000C88BF68
:10180000944657F8A40CD7F820A08142504657F8C8
:10181000983CC8BFD018002E00F0488357F8A02C81
:1018200057F8483C92B247F81C2C002247F8702C1D
:1018300057F8882C1FFA8CF69A424FF0000328BF05
:10184000012357F8A85C57F8C04C06FB05F204EBDF
:101850008202A1EB0E0157F8BC4C11FA8CF101FB8E
:1018600004FE81B2B1421AFA8CF647F88C2C4FF084
:101870000002A6EB010698BF012247F8201C06FBD8
:1018800005F147F84C1CA0EB0C010CF1010047F8E6
:101890005C0C43EA020047F8800C57F89C0C47F8B0
:1018A000501C00EB8E0047F8900C01F0010047F847
:1018B000600C57F8D40C57F81C1C10FA8CF0084434
:1018C00057F8C41C604301EB800147F8241C57F80B
:1018D000C81C002401EB800147F8301C57F8CC1CD1
:1018E000002201EB800147F82C1C57F8D01C6FF048
:1018F000FF0A01EB800047F8280C47F868CC00BFCE
:1019000057F8800C47F86C2C00B3002300207A6C49
:10191000E14301EB020ED9B2FB6904F1010C59431A
:10192000C1EB4000944557F86C2C00FA0EF00244CD
:1019300000F06F8257F8780C47F86C2C001BC0B28F
:10194000032880F011820023604633E257F8900CA0
:1019500057F8706C00EB840057F8882C57F88CCC43
:1019600047F8580C0020002347F8444C19E000BF0A
:1019700057F8501C57F8343C57F83C2C0B4457F898
:101980004C1C01320CEB810C57F8481C57F8386C92
:101990008A4257F8401C57F8444C0E446FF0FF0A37
:1019A000B5D0B9F1000F47F8343C47E90F26DFD036
:1019B00057F8641C114457F8542C514357F8602CC5
:1019C000002A57F8582C02EB810A0BD157F8686CA3
:1019D00057F85C1C624657F8203C89B28B4240F0B5
:1019E000B080C5E77D6C0024624600BF57F8241C18
:1019F00052F8043B51F806E00AEB850A83EA0E032D
:101A00004FF0553EDB430EEA5301591A08EA9103A1
:101A100021F0CC31194401EB111121F0F03101FB1F
:101A20000BF100EB116044F0010189B2894565D9E1
:101A300057F8281CDCF8042089590AEB850A514024
:101A4000C9430EEA5102891A08EA910221F0CC3109
:101A5000114401EB111121F0F03101FB0BF100EB0E
:101A6000116044F0020189B289454DD957F82C1C08
:101A7000DCF8082089590AEB850A5140C9430EEA6F
:101A80005102891A08EA910221F0CC31114401EB8C
:101A9000111121F0F03101FB0BF100EB116044F06A
:101AA000030189B2894533D957F8301CDCF80C3072
:101AB000895904345940C9430EEA5103C91A08EA46
:101AC000910321F0CC31194401EB111121F0F031D7
:101AD00001FB0BF157F8143C0CF1100200EB116004
:101AE000A1B20AEB850A1E44894594463FF67EAFB3
:101AF00057F8241C01EB060A0CE000BF57F85C1CE9
:101B00000CF1040C09E000BF0CF1080202E000BF78
:101B10000CF10C0257F85C1C94460E4657F8203C1A
:101B200089B28B420DD123E701F1040C9A4657F894
:101B30001C6C57F8202C0236B1B291426246BFF4B9
:101B400017AF7D6C47F81C6C00264FF0553C00BF6A
:101B5000DAF8001013685940C9430CEA5103C91A56
:101B600008EA910321F0CC31194401EB111121F065
:101B7000F03101FB0BF100EB116046F0010189B27D
:101B800089450AEB850359D95AF82510546803EBA7
:101B900085036140C9430CEA5104091B08EA91041A
:101BA00021F0CC31214401EB111121F0F03101FB86
:101BB0000BF100EB116046F0020189B2894541D971
:101BC0005AF8351094686140C9430CEA5104091B66
:101BD00008EA910421F0CC31214401EB111121F0EC
:101BE000F03146F0030401FB0BF1A4B2A14500EB78
:101BF00011602BD957F8181CD4685AF8013002F13B
:101C0000100183EA0402D2430CEA5203D21A08EA12
:101C1000920322F0CC321A4402EB121222F0F0327C
:101C200002FB0BF200EB126057F8142C04369244BE
:101C3000B2B291450A468BD80CE000BF111D9A46FE
:101C400008E000BF02F108019A4603E003EB850AB1
:101C500002F10C0100224FF0553E00BFDAF80030CF
:101C60000E687D6C7340DB430EEA53069B1B08EA4B
:101C7000930623F0CC33334403EB131323F0F033F8
:101C800003FB0BF300EB136042F001039BB2994599
:101C90000AEB85034FF0553C7FF646AF5AF82560B6
:101CA0004C6803EB85036640F6430CEA5604361B8A
:101CB00008EA960426F0CC36264406EB161626F0E3
:101CC000F03606FB0BF600EB166042F00206B6B2E9
:101CD000B1453FD95AF835608C684FF0553E6640A3
:101CE000F6430CEA5604361B08EA960426F0CC3676
:101CF000264406EB161626F0F03642F0030406FBE7
:101D00000BF6A4B2A14500EB166027D957F8183C92
:101D1000CC685AF8033001F1100C83EA0401C9437E
:101D20000EEA5103C91A08EA910321F0CC31194493
:101D300001EB111121F0F03101FB0BF100EB11600F
:101D400057F8141C04328A4491B28945614685D8FB
:101D5000EDE600BF01F1080CE8E600BF03EB850AE1
:101D600001F10C0CE3E600BF7C6C0EF0FC060023D6
:101D7000604600BF6AEA0002224401FA02F21A44F5
:101D8000431C6AEA0303234401FA03F31A44831C45
:101D90006AEA0303234401FA03F31A44C31C6AEA00
:101DA0000303234401FA03F3043E1344320600F113
:101DB0000400DFD11EF003021AD07D6C6AEA00062F
:101DC0002E4401FA06F6012A334411D0461C7D6CDC
:101DD0006AEA06062E4401FA06F6022A334407D0C0
:101DE00002307A6C6AEA0000104401FA00F0034401
:101DF00057F86C2C57F87C1C9818884209DB57F868
:101E0000700C6446043047F8700C786C84457FF49D
:101E100077AD57F87C4CD7F830C057F8946C57E939
:101E20002D5AA2427FF7D6AC796C42FA01F0002914
:101E30004FEA00404AD057F8E81C57F8EC6C0329E9
:101E40004FF0010496464FF000024FF0000112D30C
:101E500004FA02F31943531C04FA03F31943931CC5
:101E600004FA03F31943D31C04FA03F30432964231
:101E700041EA0301ECD157F8DC6C86B104FA02F3B5
:101E8000012E41EA03010AD0531C04FA03F3022E87
:101E900041EA030103D0023204FA02F2114357F877
:101EA000946C7446BA6CBAB990E400BF57F87C4C95
:101EB00057F8946C57E92D5A002CF4467FF58AACFC
:101EC000002000240021BA6C32B97FE400211446BE
:101ED000BA6C002A3FF47AAC57F8E02C21409140CC
:101EE000084400213268904216DD57F8743C53F8DC
:101EF00021202A4343F8212057F8842C013112680D
:101F0000DAF800300A412B4218BF52421044BA6C32
:101F10008A42E7D1FFF7D4BBBA6C91427FF45AAC46
:101F2000FFF7CEBBA7F5807E5EF8044C796B0134D9
:101F3000A7F5807EA0B257F8E45C5EF80CACD7F849
:101F400048E08842FFF4F0AB5EB157F8E80C032894
:101F50000CD200200021012421E000BF7E6C002E65
:101F6000F3D157F8B0AC002134E000BF57F8EC3C97
:101F700000200021012400BF04FA00F21143421C9A
:101F800004FA02F21143821C04FA02F21143C21C49
:101F900004FA02F20430834241EA0201ECD157F81C
:101FA000DC2C57F8B0ACAAB157F8DC3C04FA00F2CC
:101FB000012B41EA02010DD0421C57F8DC3C04FA27
:101FC00002F2022B41EA020104D0023004FA00F0CE
:101FD000014300BFBEF1000F00F0088157F87C2CD0
:101FE000A7F5807E42FA06F0114057F8E02C000475
:101FF00091400C18DAF80000C5F11F025EF8201CB1
:10200000D040032900F0010094464FF0000247F849
:10201000E45C47F81C0C7AD36FF0030357F8941C68
:1020200047F8203C08688E4600218442C8BF012141
:1020300057F8740CC5186E6801FA0CF333436B60E3
:1020400057F8843C47F8245C1B68561C57F81C5C06
:1020500033418D4208BF5B42DEF8001004EB030AF7
:102060008A454FF0000100EB8206C8BF012173686A
:10207000654601FA0CFC57F884EC43EA0C037360E4
:10208000DEF80030901C43FA00F0B36857F81C4C9F
:1020900047F8283C8C4208BF404257F894CC824411
:1020A000DCF800108A454FF00001C8BF012157F845
:1020B000280C01FA05F30343B360DEF80030D61CA8
:1020C00033418C4208BF5B42DCF800100AEB03008E
:1020D00088424FF00001AC46C8BF012157F8245C8C
:1020E00001FA0CF62B698C42DEF8001002F10402B2
:1020F00043EA060341FA02F12B6157F8203C08BF7E
:102100004942441857F8AC0C1033904286D1A7F5D9
:10211000807E5EF8180C47F82CCCD7F830C057F802
:10212000B0AC57F8946C00283FF4CAAA3068D7F8CE
:1021300030C084424FF00000C8BF012057F8745CE3
:1021400057F82C3C55F8221000FA03F343EA010E2D
:1021500057F8841C57F81C3C0968834202F10103BC
:1021600041FA03F0A7F5807108BF404251F8181CEE
:1021700045F822E001293FF4A3AA316804EB000EE0
:1021800000208E45C8BF012057F8745C57F82C4CCE
:1021900055F8231000FA04F42143A7F5807454F88D
:1021A000184CD7F830C0022C45F823103FF488AA09
:1021B00057F8841C0232096857F81C3C11418342CD
:1021C00008BF494233680EEB010098424FF000000F
:1021D000C8BF012057F8743C57F82C5C53F8221004
:1021E000A840084343F82200FFF76ABA57F8946CF6
:1021F00057F8841C01350436202D01F104017FF4C9
:102200006CAA47F8841C13E0BEF1000FA7F5807E8E
:102210005EF8345C47F8841C0AD0A7F5807E5EF82F
:10222000200CB44603280BD24FF0000E3CE000BF58
:10223000A7F5807E57F8740C5EF8244CFFF71CBAA3
:10224000A7F5807E5EF82C0CA7F5807E5EF8382C12
:102250001038002152F8103FDAF80060043973405A
:10226000DB4340F8103F5368DAF800608D4283EAA0
:1022700006036FEA030343609368DAF8006083EAB9
:1022800006036FEA03038360D368DAF8006083EA29
:1022900006036FEA0303C360DCD1C1F1000E103006
:1022A000A7F5807141F82C0CA7F5807151F8186CD6
:1022B000A7F5807157F8740C51F8244C002E3FF4A8
:1022C000DAA9014650F82E00DAF80020012E80EA43
:1022D00002006FEA0002A7F5807050F82C3C184607
:1022E00040F8042B3FF4C2A901EB8E004168DAF8F4
:1022F0000020022E81EA02016FEA0101596009D132
:102300000833A7F5807E57F8740C4EF82C3CFFF785
:10231000B2B900BF8068DAF80010A7F5807E4840A7
:10232000C043986003F10C004EF82C0C57F8740C65
:10233000FFF7A1B9A7F5807E5EF84C3CA7F5807E3B
:102340005EF8302CBE6CA7F5807E7243504347F890
:10235000D00C02FB03F05EF8682C590012B2511A3F
:1023600047F8C81CB100A7F5807E47F8B81C5EF896
:102370005C1CA7F5807E89B247F8901C5EF8601C53
:10238000A7F5807E89B247F8781C5EF8701CA7F527
:10239000807E89B247F8A01C5EF8741CA7F5807E89
:1023A0001FFA81F857F8A81C5EF8642CA7F5807E08
:1023B00051437A6C4FF03339514309B247F81C1C32
:1023C0005EF8241CA7F5807E1FFA81FACAF100018D
:1023D00047F8541CC2F1100147F87C1CF96A4FF011
:1023E000013B01EB800047F8D40C501E47F82C0C41
:1023F00002EB4200800047F8140C901E47F8300CA6
:10240000701E47F8B00C786A47F8CC3C00F0010128
:1024100020F0010047F8580C02F0030047F8800C48
:1024200002F0FC0047F8A40C100147F8180C9000CB
:1024300047F8500C57F8740C47F84C1C103806F04D
:10244000030106F0FC0647F8C00C5EF8480C744225
:1024500047F8646C0B4647F848AC47F8AC1C47F8A3
:10246000BC4C0CE057F8CC0CA7F5807E01305EF830
:10247000541C47F8CC0C80B28142FEF680AFA7F521
:10248000807E5EF8481C57F8C82C8A42EADB57F871
:10249000D01C57F8D42C414302EB810147F8B41CFF
:1024A000796BA7F5807E4843401B47F88C0C5EF89B
:1024B000480CA7F5807E5EF84C1C47F8C41C09E068
:1024C00057F8C40C57F8C81C013047F8C40C80B248
:1024D0008142C7DBA7F5807E5EF8301C0029EFD073
:1024E000796BD7F840E04843401B47F8700CD7E9B8
:1024F0000E06002147F8340C57F8740C0CE000BFAE
:1025000057F8841C01310A46A7F5807151F8301C38
:1025100004368A421146D3D047F8841C57F8B81CB9
:1025200047E90F6EFDF7AAFE57F8840C002340011F
:102530006FF0FF0E47F8940C14E000BF57F8340C0E
:1025400057F86C3C043047F8340C57F8380C01331A
:102550003D6B57F8841C202B00F1040047F8380C21
:1025600000F0CC84786B4FF00044002800F07483B6
:1025700057F8940C57F8A01C1844484357F8D81C37
:1025800024FA03F601EB800047F8440C00200021F8
:1025900047F8881C47F8606C47F86C3C57F88C1C6F
:1025A0000022084457F8901C484357F89C1C01EB44
:1025B000800047F8680C00200CE000BF0021B86CD8
:1025C0008142BBD057F85C2C796B013290B28842C3
:1025D00080F03483796C47F85C2C002900F040824D
:1025E000796A47F8284C002900F0428257F8701C9D
:1025F0004FF05536084457F8781C484357F8681C84
:1026000001EB800047F8400C002047F8240C002024
:1026100047F8200CB8F1000F00F08680786A57F870
:10262000241C012857F8400C4FF0000E00EB810CE1
:1026300040F0F48057F8443C57F84C0C57F848AC3D
:1026400057F8504C002871D0002000BFDCF8001073
:102650001A685140C94306EA5102891A09EA9102EF
:1026600021F0CC31114401EB111121F0F03140F097
:10267000010201FB0BF192B290450EEB116E55D9A0
:102680005CF804105A685140C94306EA5102891A9D
:1026900009EA910221F0CC31114401EB111121F032
:1026A000F03140F0020201FB0BF192B290450EEBCB
:1026B000116E3BD90CEB04010A599D686A40D24364
:1026C00006EA5205521B09EA920522F0CC322A444E
:1026D00002EB121222F0F03240F0030502FB0BF283
:1026E000ADB2A8450EEB126E20D921440A59DD681F
:1026F00004306A40D24306EA5205521B09EA9205A9
:1027000022F0CC322A4402EB121222F0F03202FB09
:102710000BF221440EEB126E82B201EB040C9045D9
:1027200003F1100392D801E04FF0000E57F8245C3B
:102730007E6CE943CAEB4E00314457F8202C00FA76
:1027400001F1681CB0420A4447F8202C00F00082D6
:1027500057F82C1C04464B1B57F8301C47F8240C28
:10276000491BC9B2032905D2002122466FF0FF0E92
:1027700026E000BF03F0FC05002122466FF0FF0EAB
:102780006EEA020434440AFA04F42144541C6EEA4A
:10279000040434440AFA04F42144941C6EEA040448
:1027A00034440AFA04F42144D41C6EEA0404344488
:1027B0000AFA04F4043D21442C0602F10402DFD19C
:1027C00013F003031AD07E6C6EEA020535440AFA50
:1027D00005F5012B294411D0561C7D6C6EEA0606C6
:1027E0002E440AFA06F6022B314407D002327B6CE3
:1027F0006EEA02021A440AFA02F2114457F8202C37
:1028000057F8284C1144A142C0F2A681796C4FF0D0
:10281000553688427FF4FEAE9EE100BF57F8443C37
:1028200057F858AC0CE000BF031D1446AAF1020A89
:102830005FEA0A4057F81C0C04EB800C3FF4FCAE36
:10284000002200BFDCF800001C68796C6040C043C7
:1028500006EA5004001B09EA900420F0CC30204422
:1028600000EB101020F0F03000FB0BF00EEB106EC0
:1028700042F0010080B280450CEB810458D95CF82D
:1028800021005D686840C04306EA5005401B09EA24
:10289000900520F0CC30284400EB101020F0F030F0
:1028A00000FB0BF00EEB106E42F0020080B2804590
:1028B00004EB810540D95CF831009C686040C0435E
:1028C00006EA5004001B09EA900420F0CC302044B2
:1028D00000EB101020F0F03042F0030400FB0BF08E
:1028E000A4B2A0450EEB106E2AD957F8140CDD687F
:1028F0005CF8004003F1100084EA0503DB4306EABC
:1029000053041B1B09EA930423F0CC33234403EB49
:10291000131323F0F03303FB0BF357F8181C0432A6
:102920000EEB136E93B28C44984503468AD80CE0A4
:10293000181DA44609E000BF03F10800AC4604E0FE
:10294000786C05EB800C03F10C0057F81C1C00257B
:102950000CEB8104D7F844C0226803685A40D24384
:1029600006EA5203D21A09EA920322F0CC321A4440
:1029700002EB121222F0F03202FB0BF20EEB126E9F
:1029800045F0010292B2904504EB8C027FF64CAF09
:1029900054F82C3046684FF055317340DB4301EA60
:1029A00053069B1B09EA930623F0CC33334403EB15
:1029B000131323F0F03303FB0BF30EEB136E45F010
:1029C00002039BB2984502EB8C023DD954F83C308F
:1029D00086687340DB4301EA53069B1B09EA9306B2
:1029E00023F0CC33334403EB131323F0F03345F0DF
:1029F000030603FB0BF3B6B2B0450EEB136E27D9FB
:102A000057F8142CC668A25800F1100382EA060099
:102A1000C04301EA5002801A09EA900220F0CC304B
:102A2000104400EB101020F0F03000FB0BF00EEB28
:102A3000106E57F8180C04350444A8B280451846A7
:102A40004FF0553688D8F1E600F10803144603E04C
:102A500002EB8C0400F10C034FF05536E6E600BFA4
:102A6000002C7FF5AFAD002000240021BEE000BFA8
:102A70000021002047F8200C7B6CC84357F8542CE9
:102A800018448240481C984257F8203C134447F8A9
:102A9000203C61D057F8302C521AD2B2032A57F892
:102AA0002C2CA2EB010303D20021024626E000BF3A
:102AB0007E6C03F0FC050021024600BF6EEA0204B2
:102AC00034440AFA04F42144541C6EEA04043444E5
:102AD0000AFA04F42144941C6EEA040434440AFA09
:102AE00004F42144D41C6EEA040434440AFA04F4C5
:102AF000043D21442C0602F10402DFD113F003034C
:102B00001AD07E6C6EEA020535440AFA05F5012BEF
:102B1000294411D0561C7D6C6EEA06062E440AFA32
:102B200006F6022B314407D002327B6C6EEA0202B9
:102B30001A440AFA02F2114457F8202C57F8284C8C
:102B40001144A14208DB796C8842014694D103E02C
:102B500057F8284C6FF0FF0E57F8202C57F8606C90
:102B6000A2427FF72FAD796C42FA01F04FEA0040A4
:102B700041B157F82C1C0022032907D257F8806C6A
:102B800000211CE00021144630E000BF57F8806CA3
:102B900057F8A45C0021012404FA02F31943531CE2
:102BA00004FA03F31943931C04FA03F31943D31CE7
:102BB00004FA03F30432954241EA0301ECD18EB1E9
:102BC000012505FA02F3012E41EA03010AD0531C44
:102BD00005FA03F3022E41EA030103D0023205FA9B
:102BE00002F2114357F8204C57F8606CBA6C002A77
:102BF0003FF4E4AC57F87C2C21409140084400217C
:102C000057F8342C126890427FF7D9AC57F8743CCF
:102C100053F82120324343F8212057F8382C57F835
:102C20003C3C126801311B680A41334218BF5242D2
:102C30001044BA6C8A42E3D180E400BF57F8880C94
:102C4000796B013047F8880C80B23D6B57F86C3CCB
:102C50008842FFF4A3AC00BF786C47F8284C58B109
:102C600057F82C0C0126032808D20020002157F821
:102C7000802C02BB38E000BF002135E01C4657F82D
:102C8000A43C0020002100BF06FA00F21143421CC0
:102C900006FA02F21143821C06FA02F21143C21C28
:102CA00006FA02F20430834241EA0201ECD12346E3
:102CB00057F8802CC2B11C4657F8803C06FA00F247
:102CC000012B234641EA02010ED0421C57F8803CFA
:102CD00006FA02F2022B234641EA020104D0023036
:102CE00006FA00F0014300BFB86C002800F0F48041
:102CF000786C57F8282C47F86C3C42FA00F01140E9
:102D000057F87C2C000491400E1857F83C0CC3F186
:102D10001F02006857F8B01CD04000F001000329E2
:102D200047E90A024FF0000271D357F8345C6FF0A4
:102D3000030100BF2868002447F8201C8642C8BF52
:102D4000012457F8743C57F824AC03EB010EDEF86D
:102D5000041004FA0AF557F838CC2943CEF80410C9
:102D6000DCF80010551C2941354657F8286CA6425E
:102D700008BF494257F8340C2944046803EB820524
:102D8000A1424FF00004C8BF01246B6804FA0AF0A6
:102D900018436860DCF80000931C1841AB68A64239
:102DA00008BF404257F8344C084424680021A04230
:102DB000C8BF012101FA0AF42343AB60DCF80030FC
:102DC00057F8345CD41C23418E4208BF5B4229680B
:102DD000184488424FF00001C8BF0121DEF81030CE
:102DE00001FA0AF48E42DCF8001002F1040243EA10
:102DF000040341FA02F1CEF8103008BF49424618E8
:102E000057F8201C57F8640C1031904292D157F8B3
:102E1000AC0C57F848AC00286FF0FF0E3FF48EABB7
:102E200057F8340C006886424FF00000C8BF0120FC
:102E300057F8744C57F8243C54F8221000FA03F366
:102E4000194357F8383C1D6857F8283C834202F173
:102E5000010345FA03F008BF404257F8AC5C44F860
:102E60002210012D3FF46AAB57F8341C3044096836
:102E700000258842C8BF012557F8744C57F8246CC8
:102E800054F8231005FA06F6314357F8AC6C44F8B1
:102E90002310022E3FF452AB57F8381C0232096857
:102EA00057F8283C1141AB4208BF494257F8343C1F
:102EB00008441B6898424FF00000C8BF012057F833
:102EC000743C57F8244C53F82210A040084343F8B0
:102ED0002200FFF733BB00BF57F8340C0133043036
:102EE00047F8340C57F8380C57F8841C202B00F1A5
:102EF000040047F8380C7FF435AB11E0B86C57F894
:102F0000AC3C57F8BC4C58B157F8B00C57E90F6EB1
:102F1000032809D257F8740C0021B3BBFFF7F0BAAD
:102F200057F8740C5AE000BF57F8B40C57F8C02C8F
:102F30001038002152F8103F356804396B40DB43EC
:102F400040F8103F536835688C4283EA05036FEA06
:102F5000030343609368356883EA05036FEA03035C
:102F60008360D368356883EA05036FEA0303C360AF
:102F7000E0D1103047F8B40C3D6B57F8740C57F89B
:102F8000AC3C4942002B3FF4BBAA32461E460346E6
:102F900050F82100126857F8B4EC5040C243704614
:102FA000012E40F8042B03D147F8B40C184613E067
:102FB00057F83C2C03EB810041681268022E81EA2D
:102FC00002016FEA0101CEF804100DD10EF1080ED6
:102FD00057F8740C47F8B4EC57F8841C57F83C6C5D
:102FE00057F838ECFFF78EBA57F83C6C80683168B8
:102FF0004840C043CEF808000EF10C0047F8B40C6E
:1030000057F8740C57F8841CEAE700BFB96ABE6C25
:10301000A7F5807E5EF8682C7143A7F5807E51434A
:103020005EF8502CA7F5807E5143CA1701EBD261A0
:10303000FA6A491102EB81014EF8281CA7F5807E3F
:10304000796B5EF8842CA7F5807E92FBF1F17B6CA6
:103050004EF8401CB100A7F5807E4EF82C1CA7F559
:10306000807E5EF8781CA7F5807E29444EF8041C0B
:10307000A7F5807E5EF8641CA7F5807E294447F89A
:10308000B41C5EF85C1CA7F5807E1FFA81F85EF820
:10309000601CA7F5807E89B247F8DC1C5EF86C1CCA
:1030A000A7F5807E4FEA511BC3F1100147F8E41CDD
:1030B000991E47F8801C591E47F8F01C711E57F8DE
:1030C0009C2C4EF8201C03EB430102EB8104890089
:1030D00047F8181C03F00301A7F5807E47F8E81CA9
:1030E00003F0FC014EF8084C47F8F41C06F003010D
:1030F00006F0FC0E6E42A7F5807444F8446C4FEA6B
:10310000880647F8546C1E0147F8146C02EBC3069E
:1031100002EB8302A7F5807343F8102C0B4657F897
:10312000741CA7F580741039A7F5807247F8648C79
:1031300044F80C6C42F8381CCEF100064FF05538BC
:103140004FF0333A4FF00139A7F5807147F8B8ECEA
:10315000A7F5807E41F8183C4EF8346C11E000BFB2
:10316000A7F5807E5EF8500CA7F5807E01304EF802
:10317000500CA7F5807E5EF8581C80B28142FEF6A6
:103180001CA9A7F5807E5EF8401C0029E8D4A7F5AD
:10319000807E7A6B5EF8501C5043A7F5807E89B222
:1031A00047F8FC0C5EF8440C51430844A7F5807EB8
:1031B000CEF8000000200021A7F5807E4EF83C1CD0
:1031C00010E000BFA7F5807E5EF83C0CA7F5807E7E
:1031D00001304EF83C0CA7F5807E5EF8401C80B2B2
:1031E0008142BDDBA7F5807E5EF8301C0029E9D066
:1031F000A7F5807E7A6B5EF83C1C5043A7F5807E75
:1032000089B247F8B00C5EF8440C5143084447F8C3
:10321000D40C386CD7E90E6447F8880C57F8740C56
:1032200000210DE057F8740C57F8BC4C0131A7F59C
:10323000807E0A465EF8301C04348A421146C1D0B2
:10324000A7F5807E47F8EC1C5EF82C1C47F8BC4CB8
:10325000FDF714F857F8EC0C57F8BC4C57F8882CCD
:103260004001A7F5807E00234EF8140C10E000BF4B
:1032700057F8E03C57F8846C57F8882C01333D6BC5
:1032800057F8EC1C0436202B02F1040200F09C8558
:10329000786B47E9222600284FF0004200F0348482
:1032A000A7F5807E5EF8140CA7F5807E5EF8241CDE
:1032B0001844484357F8D81C400901EB800E22FA05
:1032C00003F047F8AC0C0020002647F8E03C47F834
:1032D000F8EC57F8FC1C47F8782C08440022A7F5B6
:1032E000807347F8A46C291A88BF0A4653F8043C37
:1032F000BE6998427B6AC8BF8B19A7F5807151F8E7
:103300001C1C96B271434909401B0EEB810147F822
:10331000680C98B2A7F5807E47F8480CDEF80000EC
:1033200047F8C01C57F8A41C10FA82F010FA81F07C
:1033300057F8641CA7F5807E484357F89C1C47F853
:103340008C6C01EB800147F8C41C5EF8081CA7F5E3
:10335000807E01EB800147F8C81C5EF80C1CA7F5C5
:10336000807E01EB800147F8CC1C5EF8101C01EB5D
:10337000800047F8D00C0020002147F8A01C0FE087
:103380000021B86C81423FF473AF57F8A00C796B01
:10339000013047F8A00C80B23D6B884280F0A883D2
:1033A00057F8B01CA6464218A81A2C464FF0000544
:1033B00088BF054657F8B41CD7F820C08A4261463A
:1033C00057F8983CC8BFC118786C002800F05083AB
:1033D00057F8A00C57F8483C80B247F81C0C002066
:1033E00047F8700C57F88C0C1FFA85FE984220465F
:1033F000FC694FF0000328BF01230EFB04F457F8CB
:10340000C06C640906EB8406644647F8906C121A97
:1034100088B2002614FA85F457F8DCCC704598BFC2
:10342000012647F8200C241AF86912FA85F2444361
:10343000E01704EBD060401147F84C0C681C47F8CB
:103440005C0C43EA060047F87C0C57F89C0C02FB26
:103450000CF2491B00EB820047F8940C01F00100CC
:1034600047F8600C57F8D40C47F8501C57F81C1C50
:1034700010FA85F0084457F8C41C0CFB00F001EB6F
:10348000800147F8281C57F8C81C6FF0FF0E01EBAD
:10349000800147F8341C57F8CC1C4FF0000C01EBAE
:1034A000800147F8301C57F8D01C002301EB800046
:1034B00047F82C0C47F8245C57F87C0C47F844CCB0
:1034C00047F86C3C30B3002057F8444C47F8380CB0
:1034D00000207B6CE143CA1857F8381CFE69C9B25A
:1034E000714304F1010CC1EB40009C4557F86C3C62
:1034F00000FA02F0034447F86C3C00F06C8257F885
:10350000800C001BC0B2032880F00E8200236046AE
:1035100030E200BF57F8940C57F8441C57F8703C41
:1035200000EB810057F88C2C57F890CC47F8580CDA
:103530000020002147F8381C1BE000BF57F8501C42
:1035400057F8382C57F83C3C0A4457F84C1C47F8BD
:10355000382C57F8402C0CEB810C57F8481C0132E2
:103560008A4257F8541C57F8444C0B446FF0FF0E36
:10357000AFD0BBF1000F47E91023DFD057F8681C2C
:10358000114457F8642C514357F8602C002A57F81F
:10359000582C02EB810E0BD157F85C1C624647F8A1
:1035A0001C5C57F8203C89B28B4240F0B480C5E7E0
:1035B00000261C46624600BF57F8281C52F8043B00
:1035C00009594B40DB4308EA5301591A0AEA9103AF
:1035D00021F0CC31194401EB111121F0F03101FB44
:1035E00009F100EB116046F001017B6C89B28B455B
:1035F0000EEB830E66D957F82C1CDCF80420095911
:103600000EEB830E5140C94308EA5102891A0AEAB7
:10361000910221F0CC31114401EB111121F0F03174
:1036200001FB09F100EB116046F0020189B28B4504
:103630004ED957F8301CDCF8082009590EEB830EE0
:103640005140C94308EA5102891A0AEA910221F05D
:10365000CC31114401EB111121F0F03101FB09F1E2
:1036600000EB116046F0030189B28B4534D957F85D
:10367000341CDCF80C30095904365940C94308EAB7
:103680005103C91A0AEA910321F0CC31194401EB24
:10369000111121F0F03101FB09F100EB1160796C9F
:1036A00057F8143C0CF110020EEB810EB1B21C4421
:1036B0008B4594463FF680AF57F8281C01EB040E6B
:1036C0000CE000BF57F85C1C0CF1040C09E000BFD3
:1036D0000CF1080202E000BF0CF10C0257F85C1C70
:1036E000944647F81C1C57F8203C89B28B4212D1F3
:1036F00024E700BF01F1040C9E4657F81C1C57F844
:10370000202C023147F81C1C89B257F8245C9142E6
:103710006246BFF413AFD7F844C00024DEF80010AF
:1037200013685940C94308EA5103C91A0AEA9103C8
:1037300021F0CC31194401EB111121F0F03101FBE2
:1037400009F100EB116044F0010189B28B450EEBE9
:103750008C0359D95EF82C10566803EB8C0371402A
:10376000C94308EA5106891B0AEA910621F0CC31C7
:10377000314401EB111121F0F03101FB09F100EBB3
:10378000116044F0020189B28B4541D95EF83C10CA
:1037900096687140C94308EA5106891B0AEA9106F6
:1037A00021F0CC31314401EB111121F0F03144F022
:1037B000030601FB09F1B6B2B34500EB11602BD94A
:1037C00057F8181CD6685EF8013002F1100183EA40
:1037D0000602D24308EA5203D21A0AEA920322F0FE
:1037E000CC321A4402EB121222F0F03202FB09F240
:1037F00000EB126057F8142C04349644A2B293459F
:103800000A468BD80CE000BF111D9E4608E000BFA1
:1038100002F108019E4603E003EB8C0E02F10C015D
:10382000002200BFDEF800300E687D6C7340DB4381
:1038300008EA53069B1B0AEA930623F0CC33334471
:1038400003EB131323F0F03303FB09F300EB1360D6
:1038500042F001039BB29B450EEB85037FF64AAF16
:103860005EF825604C6803EB85036640F64308EA82
:103870005604361B0AEA960426F0CC36264406EB9C
:10388000161626F0F03606FB09F600EB166042F03D
:103890000206B6B2B3453DD95EF835608C68664025
:1038A000F64308EA5604361B0AEA960426F0CC369C
:1038B000264406EB161626F0F03642F0030406FB0B
:1038C00009F6A4B2A34500EB166027D957F8183CB7
:1038D000CC685EF8033001F1100C83EA0401C9439F
:1038E00008EA5103C91A0AEA910321F0CC311944BC
:1038F00001EB111121F0F03101FB09F100EB116036
:1039000057F8141C04328E4491B28B45614689D815
:10391000F3E600BF01F1080CEEE600BF03EB850EF5
:1039200001F10C0CE9E600BF7E6C02F0FC04002300
:10393000604600BF6EEA0005354401FA05F52B44E8
:10394000451C6EEA0505354401FA05F52B44851C36
:103950006EEA0505354401FA05F52B44C51C6EEAEF
:103960000505354401FA05F5043C2B44250600F114
:103970000400DFD112F003021AD07E6C6EEA00055B
:10398000354401FA05F5012A2B4411D0461C7D6C03
:103990006EEA06062E4401FA06F6022A334407D0E0
:1039A00002307A6C6EEA0000104401FA00F0034421
:1039B00057F86C1C57F8245C58180B4657F8781CBD
:1039C000884208DB57F8700C043047F8700C786CAC
:1039D00084457FF471AD57F8780C57F8BC4C57F814
:1039E000AC5C57F8A46C83427FF7CFAC796C43FA98
:1039F00001F000294FEA004048D057F8F01C57F872
:103A0000E86C57F8F45C03294FF000024FF0000116
:103A100017D3012404FA02F31943531C04FA03F3E5
:103A20001943931C04FA03F31943D31C04FA03F358
:103A30000432954241EA0301ECD157F86C3C57F847
:103A4000BC4C3EB34FF0010E1D460EFA02F3012EA0
:103A500041EA03010AD0531C0EFA03F3022E41EA95
:103A6000030103D002320EFA02F211432A4612E099
:103A700057F8780C57F8AC5C57F8A46C00287446DB
:103A80007FF583AC00200022002108E000211A46C7
:103A900005E000BF1A4657F8AC5C57F8A46CBB6C45
:103AA00047F8782C002B3FF46BAC114057F8E42C0E
:103AB00091400844002100BF57F8842C12689042BE
:103AC0007FF75FAC57F8743C53F821202A4343F842
:103AD000212057F8882C0131126823680A412B42B3
:103AE00018BF52421044BA6C8A42E5D1FFF7C0BBFE
:103AF0000136796BB0B257F8E03C57F8782C57F89C
:103B0000F8EC8842FFF4E5AB786C47F8782C58B1B4
:103B100057F8F00CA64603280AD2002000210126FF
:103B200057F8E82C0ABB39E0A646002136E000BF72
:103B30001C4657F8F43C00200021012606FA00F24A
:103B40001143421C06FA02F21143821C06FA02F2E9
:103B50001143C21C06FA02F20430834241EA020118
:103B6000ECD1234657F8E82CC2B11C4657F8E83C84
:103B700006FA00F2012B234641EA02010ED0421C54
:103B800057F8E83C06FA02F2022B234641EA02010A
:103B900004D0023006FA00F0014300BFB86CF8B15F
:103BA000786C57F8782C47F8E03C42FA00F0114066
:103BB00057F8E42C000491400C18DEF80000A7F53B
:103BC000807EC3F11F025EF8201CD040032900F064
:103BD00001004FF0000E47E9080211D2234686E0AB
:103BE00057F8846C57F8882C013357F8EC1C0436CE
:103BF000202B02F1040274467FF44AAB6EE100BF51
:103C00006FF00301234600BF57F8840C00250068BD
:103C100047F8241C8342C8BF012557F8740C57F895
:103C20001C6C4218516805FA06F4214357F8884C79
:103C30005160216847F8282CA4460EF1010457F87A
:103C4000202C2141AA4208BF494257F8842C19442C
:103C5000146800EB8E05A1424FF00004C8BF012498
:103C60006B6804FA06F018436860DCF800006646EA
:103C70000EF1020357F820CC1841AB68A44508BFE9
:103C80004042146808440021A042C8BF012157F8EF
:103C90001C4C8C4501FA04F443EA0403AB6033681E
:103CA0000EF1030443FA04F308BF5B4211681844A1
:103CB00088424FF00001C8BF012157F8282C57F85F
:103CC0001C4C136901FA04F48C4531680EF1040EA2
:103CD00043EA040341FA0EF1136108BF4942431855
:103CE00057F8241C57F8B80C103170458CD1A7F543
:103CF000807050F8180C57F8BC4C00283FF4B8AA54
:103D000057F8840C224600681E4683424FF000009C
:103D1000C8BF012057F8744C57F81C3C54F82E10BB
:103D200000FA03F3194357F8883C1D6857F8203C04
:103D300083420EF1010345FA03F0A7F5807508BF31
:103D4000404255F8185C44F82E10012D14463FF4FB
:103D50008FAA57F8841C3044096800258842C8BFE0
:103D6000012557F8744C57F81C6C54F8231005FAC9
:103D700006F63143A7F5807656F8186C44F8231000
:103D8000022E14463FF474AA57F8881C0EF1020262
:103D9000096857F8203C1141AB4208BF494257F827
:103DA000843C08441B6898424FF00000C8BF0120C3
:103DB00057F8743C57F81C6C53F82210B040084375
:103DC00043F82200FFF754BAA7F5807EB86C5EF87E
:103DD000183CA7F5807E5EF8344C002847F8882C04
:103DE0003FF420AAA7F5807E5EF8200C03281FD29E
:103DF00057F8740C0021002B58D057F8BC4C47F8EA
:103E0000846C1E46034650F821002268A7F5807E88
:103E10005EF828EC5040C2437046012E40F8042B57
:103E200048D1A7F5807E4EF8280C18466AE000BFFE
:103E3000A7F5807E5EF8280CA7F5807E5EF8382C0A
:103E400057F8BCEC1038002152F8103FDEF8005053
:103E500004396B40DB4340F8103F5368DEF80050F4
:103E60008C4283EA05036FEA030343609368DEF83C
:103E7000005083EA05036FEA03038360D368DEF82A
:103E8000005083EA05036FEA0303C360DCD11030FE
:103E9000A7F5807E4EF8280CA7F5807E3D6B57F87D
:103EA000740C5EF8183C4942002BA6D157F8EC1C64
:103EB000FFF7BAB903EB810041682268022E81EA5C
:103EC00002016FEA0101CEF804100DD10EF1080EC7
:103ED000A7F5807040F828EC12E000BF57F8740C8A
:103EE00047F8882CFFF7A2B9806821684840C04392
:103EF000CEF808000EF10C00A7F5807E4EF8280CD5
:103F000057F8740C57F8EC1C57F8846CFFF78EB90F
:103F1000A7F5807E5EF8540CA7F5807E5EF8481CFD
:103F2000884205DAA7F10C04A546BDE8F08F00BF72
:103F3000A7F5807E5EF84C0CA7F5807E5EF85C6C81
:103F4000A7F5807E5EF8801CA7F5807E5EF8603C59
:103F5000301A5943CA1701EBD26103FB00F2D7F8BC
:103F60002CC0D317491102EBD3620CEB8101521123
:103F7000A7F5807E7B6B5EF8845C01EB8201A7F580
:103F8000807E4EF82C1CA7F5807E95FBF3F35EF83F
:103F90007C1CA7F5807E4EF8443C1944A7F5807E32
:103FA0004EF8601C89B2A7F5807E4EF8501CA7F52C
:103FB000807E5EF8681CA7F5807E01FB06F2484310
:103FC000544655464EF8582C0CEB8000A7F5807EE1
:103FD0004FF0553A4FF033384FF0013B4EF85C0C40
:103FE00029E000BFA7F5807E5EF8480CA7F5807E2B
:103FF0005EF8581C0130A7F5807E48435EF84C1CE3
:10400000A7F5807E01314EF84C1CA7F5807E8AB260
:104010005EF8541CA7F5807E4EF8482CA7F5807EEC
:1040200091425EF85C1CA7F5807E01EB80004EF8A3
:104030002C0CFFF677AFA7F5807E5EF8440CA7F551
:10404000807E5EF8501C8842CCDBA7F5807E5EF84F
:104050004C0CA7F5807E796B5EF8482C80B2484303
:104060005143A7F5807E4EF8101CA7F5807E5EF8C0
:10407000401CA7F5807E08444EF8140CA7F5807EFE
:104080005EF8500CA7F5807E5EF8601CA7F5807E78
:104090004EF83C1C10E000BFA7F5807E5EF83C0C9B
:1040A000A7F5807E01304EF83C0CA7F5807E5EF8C7
:1040B000441C80B2814295DBA7F5807E5EF8301CFF
:1040C0000029E9D0A7F5807E7A6B5EF83C1C50434E
:1040D000A7F5807E89B247F8C00C5EF8400C5143CA
:1040E000084407F1380647F8E40C58CE57F8740C2A
:1040F000002214E0A7F5807E4EF82C0C1846A7F598
:10410000807E5EF8242C6546A7F5807E5EF8301C24
:1041100057E9223601328A4204F10404BCD0A7F5E3
:10412000807E5EF8281C47E9223647F8A04C1446EA
:10413000FCF7A4F857F8DC3CA7F5807E4EF8244C39
:104140006001A7F5807E00224EF81C0C15E000BF30
:1041500057F8880CA7F5807E04305EF8042C47F8E9
:10416000880C57F8840C013257F8DC3C202A00F107
:10417000040047F8840C00F09185786B4FF0004400
:104180000028A7F5807E4EF8042C00F02584A7F5C2
:10419000807E5EF81C0CA7F5807E5EF8081C10443B
:1041A000484357F8D81C24FA02F601EB800E002091
:1041B0004FF0000C47E92D6EA7F5807151F8101CE7
:1041C00000220844291A88BF0A4657F8F03CBD6906
:1041D00098427B6AC8BF4B1957F8F41C95B247F850
:1041E0008C5C69433D6B0EEB8101401B47F8640C0E
:1041F00098B2A7F5807E47F8480C5EF8140C47F893
:10420000C41C10FA82F057F8541C10FA8CF0484382
:1042100057F89C1CA7F5807E01EB800147F8C81C6D
:1042200057F8F81C4EF80CCC01EB800147F8CC1C79
:1042300057F8FC1CA7F5807E01EB800147F8D01CE5
:10424000DEF800104FF0000C01EB800047F8D40CB2
:1042500000200BE0002191423FF47AAF0CF1010CF9
:10426000796B1FFA8CF0884280F0A88357F8C01C45
:10427000AE4601446A1A4FF0000547F87C4C88BFEF
:10428000154657F8A40C3C6A8142204657F8983CE2
:10429000C8BFD0187A6C002A00F02C831FFA8CF269
:1042A00047F81C2C002247F8702C57F88C2C57F834
:1042B000483C47F8B8CC9A424FF0000328BF01238E
:1042C00047F8685C57F8682C57F8C4CC96B2724629
:1042D000891A57F8682CA64657F8A84C11FA82F1AB
:1042E00057F8BC2C06FB04F50CEB850501FB02FC22
:1042F00081B2B1424FF0000647F8905C98BF0126AA
:1043000057F8685C47F8201C1EFA85F56D1A05FB06
:1043100004F157F8685C47F84C1C411B57F8680CCF
:1043200047F8501C013047F85C0C43EA060047F898
:10433000800C57F89C0C002300EB8C0047F8940C81
:1043400001F0010047F8600C57F8E40C57F8681CBE
:104350006FF0FF0E10FA81F057F81C1C084457F854
:10436000C81C504301EB800147F8241C57F8CC1CB3
:1043700001EB800147F8301C57F8D01C01EB80019D
:1043800047F82C1C57F8D41C01EB8000002147F89B
:10439000280C00BF57F8800C47F8441C47F86C3CC9
:1043A00010B3002400207B6CC943CA18E1B2FE6937
:1043B00057F8444C714304F1010CC1EB40009C459B
:1043C00057F86C3C00FA02F0034400F0638257F89F
:1043D000780C47F86C3C001BC0B2032880F00482C4
:1043E0000023604626E200BF57F8940C57F8706C23
:1043F00000EB810057F88C3C57F890CC47F8580CEC
:104400000020002419E000BF57F8501C57F8344C26
:1044100057F83C3C0C4457F84C1C01330CEB810C16
:1044200057F8481C57F8386C8B4257F8401C6FF00F
:10443000FF0E0E4457F8441CB5D0B9F1000F47F8F1
:10444000344C47E90F36DFD057F8641C57F8542C2A
:104450001944514357F8602C002A57F8582C02EBA6
:10446000810E0BD157F8684C57F85C1C624657F820
:10447000203C89B28B4240F0AC80C5E77D6C0024C3
:10448000624600BF57F8241C52F8043B89590EEBD2
:10449000850E4B40DB430AEA5301591A08EA91039F
:1044A00021F0CC31194401EB111121F0F03101FB65
:1044B0000BF100EB116044F0010189B2894565D927
:1044C00057F8281CDCF8042089590EEB850E514062
:1044D000C9430AEA5102891A08EA910221F0CC3153
:1044E000114401EB111121F0F03101FB0BF100EB54
:1044F000116044F0020189B289454DD957F82C1C4E
:10450000DCF8082089590EEB850E5140C9430AEAB0
:104510005102891A08EA910221F0CC31114401EBD1
:10452000111121F0F03101FB0BF100EB116044F0AF
:10453000030189B2894533D957F8301CDCF80C30B7
:10454000895904345940C9430AEA5103C91A08EA8F
:10455000910321F0CC31194401EB111121F0F0311C
:1045600001FB0BF157F8143C0CF1100200EB116049
:10457000A1B20EEB850E1E44894594463FF682AFEC
:1045800057F8241C01EB060E0CE000BF57F85C1C2A
:104590000CF1040C09E000BF0CF1080202E000BFBE
:1045A0000CF10C0257F85C1C94460C4657F8203C62
:1045B00089B28B420DD127E701F1040C9E4657F8D2
:1045C0001C4C57F8202C0234A1B291426246BFF431
:1045D0001BAFD7F844C0002647F81C4CDEF800108B
:1045E00013685940C9430AEA5103C91A08EA9103FA
:1045F00021F0CC31194401EB111121F0F03101FB14
:104600000BF100EB116046F0010189B289450EEB18
:104610008C0359D95EF82C10546803EB8C0361406D
:10462000C9430AEA5104091B08EA910421F0CC317C
:10463000214401EB111121F0F03101FB0BF100EBF2
:10464000116046F0020189B2894541D95EF83C10FB
:1046500094686140C9430AEA5104091B08EA9104BD
:1046600021F0CC31214401EB111121F0F03146F061
:10467000030401FB0BF1A4B2A14500EB11602BD99F
:1046800057F8181CD4685EF8013002F1100183EA73
:104690000402D2430AEA5203D21A08EA920322F031
:1046A000CC321A4402EB121222F0F03202FB0BF26F
:1046B00000EB126057F8142C04369644B2B29145C0
:1046C0000A468BD80CE000BF111D9E4608E000BFD3
:1046D00002F108019E4603E003EB8C0E02F10C018F
:1046E000002200BFDEF800300E687D6C7340DB43B3
:1046F0000AEA53069B1B08EA930623F0CC333344A3
:1047000003EB131323F0F03303FB0BF300EB136005
:1047100042F001039BB299450EEB85037FF64CAF47
:104720005EF825604C6803EB85036640F6430AEAB1
:104730005604361B08EA960426F0CC36264406EBCF
:10474000161626F0F03606FB0BF600EB166042F06C
:104750000206B6B2B1453DD95EF835608C68664058
:10476000F6430AEA5604361B08EA960426F0CC36CD
:10477000264406EB161626F0F03642F0030406FB3C
:104780000BF6A4B2A14500EB166027D957F8183CE8
:10479000CC685EF8033001F1100C83EA0401C943D0
:1047A0000AEA5103C91A08EA910321F0CC311944ED
:1047B00001EB111121F0F03101FB0BF100EB116065
:1047C00057F8141C04328E4491B28945614689D849
:1047D000F5E600BF01F1080CF0E600BF03EB850E23
:1047E00001F10C0CEBE600BF7C6C02F0FC06002330
:1047F000604600BF6EEA0005254401FA05F52B442A
:10480000451C6EEA0505254401FA05F52B44851C77
:104810006EEA0505254401FA05F52B44C51C6EEA30
:104820000505254401FA05F5043E2B44350600F143
:104830000400DFD112F003021AD07D6C6EEA00068C
:104840002E4401FA06F6012A334411D0461C7D6C31
:104850006EEA06062E4401FA06F6022A334407D011
:1048600002307A6C6EEA0000104401FA00F0034452
:1048700057F86C1C58180B4657F87C1C884209DB0B
:1048800057F8700C6146043047F8700C786C84451A
:104890007FF480AD57F87C4C3D6B57F8B0EC57E98E
:1048A0002EC6A3427FF7DAAC796C43FA01F04FEAE7
:1048B000004069B357F8E81C03292DD2AE4657F8DB
:1048C000DC5C002200210124002D45D01E4604FAA4
:1048D00002F3012D41EA03010AD0531C04FA03F349
:1048E000022D41EA030103D0023204FA02F211431D
:1048F000344632E057F87C4C57E92D60002C754661
:1049000086467FF5ABAC00200024002128E000BFE4
:1049100000211C4624E000BFAE4657F8EC5C1E4662
:1049200000220021012400BF04FA02F31943531CA2
:1049300004FA03F31943931C04FA03F31943D31C39
:1049400004FA03F30432954241EA0301ECD157F82B
:10495000DC5C3346002DB9D11C46754657E92D6EF7
:10496000BA6C002A3FF476AC57F8E02C2140914015
:104970000844002157F8882C1268904218DD57F837
:10498000743C53F82120324343F8212057F8842CFB
:1049900057F8A03C126801311B680A41334218BF26
:1049A00052421044BA6C8A42E4D1FFF7D1BB00BF37
:1049B000BA6C91427FF452ACFFF7CABBA7F5807086
:1049C00050F80CCC796B0CF1010C1FFA8CF057F8F5
:1049D000DC3C8842FFF4F0AB786C47F87C4C58B173
:1049E00057F8E80C03280BD200200021012457F8C7
:1049F000A0EC13BB32E000BF57F8A0EC00212DE083
:104A0000AE4657F8EC5C00200021012404FA00F2C5
:104A10001143421C04FA02F21143821C04FA02F20E
:104A20001143C21C04FA02F20430854241EA020139
:104A3000ECD1754657F8A0EC83B104FA00F2012BD3
:104A400041EA02010AD0421C04FA02F2022B41EAB6
:104A5000020103D0023004FA00F00143B86C0028D0
:104A600000F0068157F87C2C786C114042FA00F077
:104A700057F8E02C000491400C18DEF80000A7F570
:104A8000807E5EF8041CA7F5807EC1F11F0147F807
:104A9000281CC8405EF8201C4FF0000C032900F0D1
:104AA000010147F81C1C75D36FF0030357F888EC1D
:104AB0000025DEF8000047F8203C8442C8BF0125ED
:104AC00057F8740CC218234657F8284C516805FA59
:104AD00004F6314347F8242C516057F8842C0CF12C
:104AE0000106116847F8842C314157F81C6CAE421E
:104AF00008BF4942DEF800501944A9424FF00005B2
:104B000000EB8C06C8BF0125736805FA04F0184352
:104B1000706010680CF1020357F81C2C1841B36840
:104B2000AA4208BF4042DEF8005008440021A842D3
:104B3000C8BF012101FA04F52B43B36057F8843C48
:104B40000CF103051B688A4243FA05F308BF5B4278
:104B5000DEF80010184488424FF00001C8BF012160
:104B600057F8246C01FA04F58A4257F8841C33691B
:104B700009680CF1040C43EA050341FA0CF13361B6
:104B800057F8203C08BF4942441857F8AC0C103382
:104B900060458BD1A7F5807E5EF8180C3D6B57F809
:104BA0001C2C00283FF4D4AA57F8880C3E6B0068F0
:104BB00084424FF00000C8BF012057F8741C57F81A
:104BC000283C51F82C5000FA03F343EA050E57F83D
:104BD000843C82421D680CF1010345FA03F0A7F5FD
:104BE000807508BF404255F8185C41F82CE0012D53
:104BF00035463FF4ADAA57F8881C04EB000E09684F
:104C000000248E45C8BF012457F8740C57F8285C5F
:104C100050F8231004FA05F52943A7F580753E6B7B
:104C200055F8185C40F82310022D35463FF490AA41
:104C300057F8840C0CF1020C0168A24241FA0CF105
:104C400008BF494257F8880C03680EEB01009842F0
:104C50004FF00000C8BF012057F8743C57F8282CCB
:104C600053F82C109040084343F82C00FFF770BA1B
:104C700057F8880CA7F5807E04305EF8042C47F8BE
:104C8000880C57F8840C0132202A00F1040047F800
:104C9000840C7FF472AA57F8740C1EE0B86CA7F568
:104CA000807E5EF818ECAC46A0B1A7F5807050F895
:104CB000200C57F8A04C0328A7F5807050F8345CFE
:104CC00014D2002157F8740CBEF1000F43D1FFF746
:104CD00016BA00BF57F8740C6546A7F5807E5EF8DB
:104CE000242C57F8A04CFFF70FBA00BFA7F580702F
:104CF00050F82C0CA7F5807252F8382C103800218F
:104D000052F8103F266804397340DB4340F8103FE7
:104D1000536826688D4283EA06036FEA0303436003
:104D20009368266883EA06036FEA03038360D36807
:104D3000266883EA06036FEA0303C360E0D14942B1
:104D40001030A7F5807242F82C0C57F8740CBEF1A5
:104D5000000F3FF4D4A9034650F821002268BEF1A9
:104D6000010F80EA02006FEA0002A7F5807050F898
:104D70002C6C304640F8042B3FF4BCA903EB8100B7
:104D800041682268BEF1020F81EA02016FEA010167
:104D9000716009D10836A7F5807E57F8740C4EF87B
:104DA0002C6CFFF7ACB900BF80682168A7F5807E46
:104DB0004840C043B06006F10C004EF82C0C57F888
:104DC000740CFFF79CB900002DE9F04F03AF81B0E0
:104DD0002DED028BACB0D7F8489047F87C0C07203B
:104DE00000EB890020F0070047F8C01CB96AADEB62
:104DF000000047F8280C85460020B0EB511F00F05A
:104E00003983D7E90C18D7E906EC4D00D7E9086AD1
:104E100001357544A5EB0A0509FB02F495FBF8F58D
:104E200004FB03FB9B1B47F8AC5C5D1C05EB410ED0
:104E300006FB0CF1C44601FB0AF8CBF34F1147F80F
:104E4000801CC4F34F1147F8701CB6FA86F156095E
:104E500004FB03F2D31702EBD362012303FA09F335
:104E600000EE103A47F82C6CB6FA86F3BE6A490990
:104E7000740947F8C84CC8F100045B09521147F89F
:104E8000A44C4FEA890447F83C2C05FB06F2194371
:104E900047F8604CA9F1010457F8286C47F8401C0A
:104EA00009F0FC0147F8244C09F00304C1F1000BA0
:104EB0009EFBFCF147F8204CA6F1100447F8304C5B
:104EC000A9F10300A9F1020447F8B42C47F89C1C8F
:104ED000396CD7E90E32A9F1040647F84C0C786C0E
:104EE00047F8504C0024B8EEC08AC64647F8486CD4
:104EF00000264FF055354FF0333A4FF0013847F860
:104F0000C44C002447F8544C47F844EC0BE000BF75
:104F100057F8C44C013447F8C44CA6B257F8C84CF3
:104F2000B44240F2A782740147F8BC4C002447F811
:104F3000B06C47F8B84C06E057F8B84C0134202C58
:104F400047F8B84CE4D057F8AC6C012EF4DB57E9C5
:104F50002F4647E92323264406FB0EF657F8C04C9C
:104F6000760904EB86040026002247F86C4C47F8CB
:104F7000A82C47E925010FE0A7F194030FCB57F8C0
:104F8000A84C013447F8A84CA6B257F8AC4CB44230
:104F9000A7F194040FC4CFDD57F89C0C0128EBDB7C
:104FA00006FB0CF047F8780C57F8B40C7043C117A7
:104FB00000EBD16057F8B01C002601EB601047F8F9
:104FC000A00C002047F8840C43E000BF57F8A42C45
:104FD00000EE102AB8EEC00A80EE080A57F8880CD6
:104FE00057F88C2C90ED001A92ED002A57F8903C5F
:104FF000BE6A57F8844C191D664357F8A04C47F811
:10500000341C04EB5616FC6A30EE410A80EE020AAC
:1050100093ED001A031D57F8940C04EB860657F81D
:105020009C4C011D043221EE000A90ED001A31EE75
:10503000000A86ED000A57F8986C0136B0B247F8BE
:10504000840C8442084657F8341CA7F194040FC41A
:1050500095DDBCF1000F47F8986CB7D057F8840C79
:1050600057F8A42C00FB0CF047F8680C0020002136
:1050700006E000BF57F8741C013188B26045A7D222
:1050800047F8741C57F8781C0026084457F8801C11
:10509000484357F87C1C01EB800047F8640C002063
:1050A00011E000BFD7F834C057F8544C57F8582CCB
:1050B00047F8544C9442C8BF224657F85C0C013064
:1050C00086B26645D6D247E9170257F8280C57F83A
:1050D000601CFBF7D3F8786A57F82CEC002800F036
:1050E000458157F8680C57F8701C3044484357F80E
:1050F000641C01EB800C57F86C1C002047F8380C3E
:105100000EE000BF604657F8383C7A6A013393429C
:1051100057F83C2C47F8383C00EB820C80F0268195
:1051200057F8400C0028EDD1002047F8340C0CE073
:105130000431604657F8343C3A6A0133D7F8489056
:105140009342844647F8343CDDD2B9F1000F00F0B9
:10515000EF804FF0000921E0DCF808300C680CF11A
:105160000C0083EA0402D24305EA5203D21A0AEA87
:10517000920322F0CC321A4402EB121222F0F032E7
:10518000B36802FB08F203EB1262B26009F1010995
:105190001FFA89F2043196458446CBD957F8240C7E
:1051A000032805D2002657F8202C002A7CD1EDE7F1
:1051B000ACF1100057F830CC002200BF50F8106F4F
:1051C000D1F800E0043A86EA0E06F64305EA5604F2
:1051D000361B0AEA960426F0CC36264406EB161651
:1051E00026F0F0365CF8104F06FB08F604EB166666
:1051F000CCF8006046680C68DCF808306640F6437E
:1052000005EA5604361B0AEA960426F0CC362644F4
:1052100006EB161626F0F036DCF8044006FB08F61E
:1052200004EB1666CCF8046086680C68934586EA41
:1052300004066FEA060605EA5604A6EB04060AEA27
:10524000960426F0CC36264406EB161626F0F036E9
:1052500006FB08F603EB1663CCF80830C3680E684B
:10526000DCF80C4083EA06036FEA030305EA530601
:10527000A3EB06030AEA930623F0CC33334403EB93
:10528000131323F0F03303FB08F304EB1363CCF8A0
:105290000C3093D1103057F82CEC5642844657F816
:1052A000202C002A3FF472AF604650F8043B0C6893
:1052B00057F8282C6340DB4305EA53041B1B0AEA1A
:1052C000930423F0CC33234403EB131323F0F03384
:1052D00052F8264003FB08F304EB136357F8204C05
:1052E00042F82630012C3FF451AFDCF804000B6883
:1052F00057F8202C5840C04305EA5003C01A0AEA68
:10530000900320F0CC30184457F8283C00EB1010E4
:1053100003EB860620F0F030736800FB08F003EB27
:105320001060022A70607FF417AF0CF108002DE7BF
:10533000002000BF40F001039BB29E457FF6F8AE0F
:1053400040F002039BB29E450CD940F003039BB290
:105350009E4509D9043083B29E4501F11001E9D878
:10536000E7E600BF0831E4E60C31E2E657F844EC2A
:10537000B9F1000F3FF496AE57F8240C032809D278
:10538000D7F834C057F8544C002057F8201C002997
:1053900040D18BE657F8301C57F8544C002000BF22
:1053A00051F8102F57F844ECA2EB0E031A4409EB06
:1053B0000003013B0A609A40D1E9013602EB040C7C
:1053C000A3EB0E021A4457F8503C4A6003449A403B
:1053D000A6EB0E03334457F84C6CCC680644624489
:1053E0008B60B34057F8486C1A44A4EB0E03234477
:1053F0000644CB60B3400438834503EB0204CFD1AD
:1054000057F844ECD7F834C0404257F8201C002924
:105410003FF44CAE57F8283C53F82010A1EB0E0295
:105420001144C2434A4443F82010914057F8202CBD
:105430000C44012A3FF43AAE57F8281C01EB8001D6
:105440004A68A9EB0000A2EB0E031A44831E4A60CF
:105450009A4057F8203C1444022B3FF427AE8A6848
:105460000338A2EB0E031A4402FA00F08A600444E7
:105470001CE600BFA7F11804A546BDEC028B01B0E5
:10548000BDE8F08F2DE9F04F03AFD7B0A7F5807ED0
:105490004EF8101CA7F5807ED7E910C1CEF80000A9
:1054A000072000EB810020F00700D7F824803C6A39
:1054B000D7E90665ADEB000047F8300C85460CFBDC
:1054C00002F0A7F5807E00FB03F14EF8542C490949
:1054D000A7F5807E4EF8581C4109A7F5807E4EF84E
:1054E0005C1CB6EB0801A7F5807E4EF8441C04FB5B
:1054F00005F1A7F5807E47F8F43C4EF8401C00F11A
:10550000858657F8F42CD7F82080A7F5807E3C6B71
:105510005EF8401CA2EB0805BE6AD7F844E005EB34
:10552000440201320EFB06F35A4347F8C42C03FB36
:1055300004F2730947F8983C4FEA8E0347F8A03C01
:10554000A7F5807353F8583CD7F8249068439BB272
:10555000A7F5807447F8B45CC51701FB09F147F85B
:10556000C83CA7F5807354F8544C00EBD56053F851
:105570005C3C401189B208FB04F647F8280C480946
:105580009BB24FEA561847F8640CF86A520947F87C
:10559000BC3CB9FA89F3B8FA88F65B09760900EBE6
:1055A000820047F8CC0C43EA060047F86C0C0CEB81
:1055B0004C00800047F8140C0EF0FC00404247F805
:1055C000A80C002047F8541CA0EB511147F8701CA0
:1055D000CCF1100147F8741C0CF1020147F8781C5B
:1055E000ACF1010147F83C1CACF1020147F8801C0A
:1055F000AEF1010147F8A41C09F0010147F8841C31
:1056000029F0010147F8881C0CF0030147F85C1CE5
:105610000EF0030147F89C1C4FEA0C1147F8181CC8
:105620004FEA8C0147F8481C57F8301C0CF0FC047A
:10563000103947F8AC1C4FF0010B4FF055394FF0C3
:10564000013A002147F8C01C47F8344C0DE000BF78
:1056500057F8C00CA7F5807E01305EF8441C47F86F
:10566000C00C80B28142C0F2D18557F8B41C002929
:10567000EED4396B57F8C42C01445143CA1701EBDF
:10568000D26157F8CC2C491102EB810147F8941CE8
:1056900057F8C81CA7F5807E4843DEF800100022AA
:1056A00001EB800047F8B80C002007E057F8B02C59
:1056B00057F8B41C013290B28142C9DB57F8981CEC
:1056C00047F8B02C0029F1D057F8BC1CA7F5807E14
:1056D000484357F8B81C5EF8105C01EB800047F8AF
:1056E0007C0C002047F88C0CB86BFA6B47F8380C30
:1056F000786B47F8900C1EE0DEF80820016882EA1B
:105700000100C043986003F10C0047F8940C57F86F
:10571000682C57F88C0C57F8981C013047F88C0C03
:1057200080B2814257F8380C02F1800200F1040087
:1057300047F8380CBAD957F8300C57F8A01C57F86E
:10574000906C47F8682CFAF799FD57F8682CD7F851
:1057500040C0304606F18000002147F81C6C47F835
:10576000900C47F8202C1CE0D7F840C057F8682C64
:1057700057F8581C57F8344C4FF0013A57F81C0CA6
:105780000131043047F81C0C57F8200C202900F197
:10579000040047F8200C57F8640C05EB800500F076
:1057A000C784BCF1000FE9D04FF00040C84047F873
:1057B000240C0020002347F8440C002047F84C0C30
:1057C00047F8581C57F86C0C47F8403C10B14FF0A4
:1057D000000EBBE1786A4FF0000E012857F87C0CF0
:1057E00000EB830C40F0888057F8840C002800F010
:1057F000AD810022294600BFDCF800000B684FF0A5
:1058000033365840C04309EA5003C01A06EA9003F1
:1058100020F0CC30184400EB101020F0F03042F0B3
:10582000010300FB0AF09BB298450EEB106E40F2AC
:10583000858157F8485C4B685CF805005840C043C8
:1058400009EA5003C01A06EA900320F0CC3018444D
:1058500000EB101020F0F03042F0020300FB0AF0E1
:105860009BB298450EEB106E40F26A810CEB05007E
:1058700043598E684FF0333C7340DB4309EA5306CB
:105880009B1B0CEA930623F0CC33334403EB131336
:1058900023F0F03342F0030603FB0AF3B6B2B0453F
:1058A0000EEB136E40F25081284400EB050C40597A
:1058B000CE6823467040C0432C4601F1100509EA2A
:1058C0005001401A4FF0333101EA900120F0CC3002
:1058D000084400EB101020F0F03000FB0AF0043216
:1058E0000EEB106E90B2A4441C464FF0010B8045A5
:1058F000294681D82AE100BF57F8881C10E000BF74
:105900001D1D064657F82C1C57F8344C0239080464
:1059100057F8280C4FF0010B06EB800C3FF464AFF6
:1059200047F82C1C00214FF0333B00BFDCF800008F
:105930002B683A6C5840C04309EA5003C01A0BEA7E
:10594000900320F0CC30184400EB101020F0F03021
:1059500000FB0AF00EEB106E41F0010080B28045B2
:105960000CEB820058D95CF822306E687340DB4340
:1059700009EA53069B1B0BEA930623F0CC3333440E
:1059800003EB131323F0F03303FB0AF30EEB136E58
:1059900041F002039BB2984500EB820640D95CF8C7
:1059A0003200AB685840C04309EA5003C01A0BEA02
:1059B000900320F0CC30184400EB101020F0F030B1
:1059C00041F0030300FB0AF09BB298450EEB106E0A
:1059D0002AD957F8140CEE685CF8000005F11003A2
:1059E0007040C04309EA5005401B0BEA900520F0C7
:1059F000CC30284400EB101020F0F03000FB0AF00F
:105A00000EEB106E57F8180C0431844488B28045B0
:105A10001D468BD80DE000BF2B1D844609E000BF5A
:105A200005F10803B44604E0386C05F10C0306EBFD
:105A3000800C57F8280C3C6C0CEB8006002100BF52
:105A400030681D686840C04309EA5005401B0BEAF6
:105A5000900520F0CC30284400EB101020F0F030FE
:105A600000FB0AF00EEB106E41F0010080B28045A1
:105A700006EB84007FF644AF56F824505A6800EBDA
:105A800084006A40D24309EA5205521B0BEA920590
:105A900022F0CC322A4402EB121222F0F03202FB46
:105AA0000AF20EEB126E41F0020292B290453BD91F
:105AB00056F834209D686A40D24309EA5205521BC9
:105AC0000BEA920522F0CC322A4402EB121222F0A9
:105AD000F03241F0030502FB0AF2ADB2A8450EEB2D
